{"abi":[{"type":"constructor","inputs":[{"name":"_owner","type":"address","internalType":"address"},{"name":"_ledgerId","type":"address","internalType":"address"}],"stateMutability":"nonpayable"},{"type":"function","name":"application","inputs":[{"name":"contextId","type":"bytes32","internalType":"bytes32"}],"outputs":[{"name":"","type":"tuple","internalType":"struct ContextConfig.Application","components":[{"name":"id","type":"bytes32","internalType":"bytes32"},{"name":"blob","type":"bytes32","internalType":"bytes32"},{"name":"size","type":"uint64","internalType":"uint64"},{"name":"source","type":"string","internalType":"string"},{"name":"metadata","type":"bytes","internalType":"bytes"}]}],"stateMutability":"view"},{"type":"function","name":"applicationRevision","inputs":[{"name":"contextId","type":"bytes32","internalType":"bytes32"}],"outputs":[{"name":"","type":"uint32","internalType":"uint32"}],"stateMutability":"view"},{"type":"function","name":"contexts","inputs":[{"name":"","type":"bytes32","internalType":"bytes32"}],"outputs":[{"name":"applicationGuard","type":"tuple","internalType":"struct ContextConfig.Guard","components":[{"name":"privileged","type":"bytes32[]","internalType":"bytes32[]"},{"name":"revision","type":"uint32","internalType":"uint32"}]},{"name":"application","type":"tuple","internalType":"struct ContextConfig.Application","components":[{"name":"id","type":"bytes32","internalType":"bytes32"},{"name":"blob","type":"bytes32","internalType":"bytes32"},{"name":"size","type":"uint64","internalType":"uint64"},{"name":"source","type":"string","internalType":"string"},{"name":"metadata","type":"bytes","internalType":"bytes"}]},{"name":"membersGuard","type":"tuple","internalType":"struct ContextConfig.Guard","components":[{"name":"privileged","type":"bytes32[]","internalType":"bytes32[]"},{"name":"revision","type":"uint32","internalType":"uint32"}]},{"name":"proxyGuard","type":"tuple","internalType":"struct ContextConfig.Guard","components":[{"name":"privileged","type":"bytes32[]","internalType":"bytes32[]"},{"name":"revision","type":"uint32","internalType":"uint32"}]},{"name":"proxyAddress","type":"address","internalType":"address"}],"stateMutability":"view"},{"type":"function","name":"fetchNonce","inputs":[{"name":"contextId","type":"bytes32","internalType":"bytes32"},{"name":"userId","type":"bytes32","internalType":"bytes32"}],"outputs":[{"name":"","type":"uint64","internalType":"uint64"}],"stateMutability":"view"},{"type":"function","name":"getEthSignedMessageHash","inputs":[{"name":"messageHash","type":"bytes32","internalType":"bytes32"}],"outputs":[{"name":"","type":"bytes32","internalType":"bytes32"}],"stateMutability":"pure"},{"type":"function","name":"getMessageHash","inputs":[{"name":"request","type":"tuple","internalType":"struct ContextConfig.Request","components":[{"name":"signerId","type":"bytes32","internalType":"bytes32"},{"name":"userId","type":"bytes32","internalType":"bytes32"},{"name":"nonce","type":"uint64","internalType":"uint64"},{"name":"kind","type":"uint8","internalType":"enum ContextConfig.RequestKind"},{"name":"data","type":"bytes","internalType":"bytes"}]}],"outputs":[{"name":"","type":"bytes32","internalType":"bytes32"}],"stateMutability":"pure"},{"type":"function","name":"hasMember","inputs":[{"name":"contextId","type":"bytes32","internalType":"bytes32"},{"name":"userId","type":"bytes32","internalType":"bytes32"}],"outputs":[{"name":"","type":"bool","internalType":"bool"}],"stateMutability":"view"},{"type":"function","name":"ledgerId","inputs":[],"outputs":[{"name":"","type":"address","internalType":"address"}],"stateMutability":"view"},{"type":"function","name":"members","inputs":[{"name":"contextId","type":"bytes32","internalType":"bytes32"},{"name":"offset","type":"uint256","internalType":"uint256"},{"name":"length","type":"uint256","internalType":"uint256"}],"outputs":[{"name":"","type":"bytes32[]","internalType":"bytes32[]"}],"stateMutability":"view"},{"type":"function","name":"membersRevision","inputs":[{"name":"contextId","type":"bytes32","internalType":"bytes32"}],"outputs":[{"name":"","type":"uint32","internalType":"uint32"}],"stateMutability":"view"},{"type":"function","name":"mutate","inputs":[{"name":"request","type":"tuple","internalType":"struct ContextConfig.SignedRequest","components":[{"name":"payload","type":"tuple","internalType":"struct ContextConfig.Request","components":[{"name":"signerId","type":"bytes32","internalType":"bytes32"},{"name":"userId","type":"bytes32","internalType":"bytes32"},{"name":"nonce","type":"uint64","internalType":"uint64"},{"name":"kind","type":"uint8","internalType":"enum ContextConfig.RequestKind"},{"name":"data","type":"bytes","internalType":"bytes"}]},{"name":"r","type":"bytes32","internalType":"bytes32"},{"name":"s","type":"bytes32","internalType":"bytes32"},{"name":"v","type":"uint8","internalType":"uint8"}]}],"outputs":[{"name":"","type":"bool","internalType":"bool"}],"stateMutability":"nonpayable"},{"type":"function","name":"owner","inputs":[],"outputs":[{"name":"","type":"address","internalType":"address"}],"stateMutability":"view"},{"type":"function","name":"privileges","inputs":[{"name":"contextId","type":"bytes32","internalType":"bytes32"},{"name":"identities","type":"bytes32[]","internalType":"bytes32[]"}],"outputs":[{"name":"","type":"tuple[]","internalType":"struct ContextConfig.UserCapabilities[]","components":[{"name":"userId","type":"bytes32","internalType":"bytes32"},{"name":"capabilities","type":"uint8[]","internalType":"enum ContextConfig.Capability[]"}]}],"stateMutability":"view"},{"type":"function","name":"proxyBytecode","inputs":[],"outputs":[{"name":"","type":"bytes","internalType":"bytes"}],"stateMutability":"view"},{"type":"function","name":"proxyCodeHash","inputs":[],"outputs":[{"name":"","type":"bytes32","internalType":"bytes32"}],"stateMutability":"view"},{"type":"function","name":"proxyContract","inputs":[{"name":"contextId","type":"bytes32","internalType":"bytes32"}],"outputs":[{"name":"","type":"address","internalType":"address"}],"stateMutability":"view"},{"type":"function","name":"setProxyCode","inputs":[{"name":"newBytecode","type":"bytes","internalType":"bytes"}],"outputs":[{"name":"","type":"bool","internalType":"bool"}],"stateMutability":"nonpayable"},{"type":"event","name":"ApplicationUpdated","inputs":[{"name":"contextId","type":"bytes32","indexed":true,"internalType":"bytes32"}],"anonymous":false},{"type":"event","name":"CapabilityAdded","inputs":[{"name":"contextId","type":"bytes32","indexed":true,"internalType":"bytes32"},{"name":"memberId","type":"bytes32","indexed":false,"internalType":"bytes32"},{"name":"capability","type":"uint8","indexed":false,"internalType":"enum ContextConfig.Capability"}],"anonymous":false},{"type":"event","name":"CapabilityRevoked","inputs":[{"name":"contextId","type":"bytes32","indexed":true,"internalType":"bytes32"},{"name":"memberId","type":"bytes32","indexed":false,"internalType":"bytes32"},{"name":"capability","type":"uint8","indexed":false,"internalType":"enum ContextConfig.Capability"}],"anonymous":false},{"type":"event","name":"ContextCreated","inputs":[{"name":"contextId","type":"bytes32","indexed":true,"internalType":"bytes32"},{"name":"authorId","type":"bytes32","indexed":false,"internalType":"bytes32"}],"anonymous":false},{"type":"event","name":"LogAuthorizationCheck","inputs":[{"name":"contextId","type":"bytes32","indexed":false,"internalType":"bytes32"},{"name":"signer","type":"address","indexed":false,"internalType":"address"},{"name":"hasCapability","type":"bool","indexed":false,"internalType":"bool"}],"anonymous":false},{"type":"event","name":"MembersAdded","inputs":[{"name":"contextId","type":"bytes32","indexed":true,"internalType":"bytes32"},{"name":"members","type":"bytes32[]","indexed":false,"internalType":"bytes32[]"}],"anonymous":false},{"type":"event","name":"MembersRemoved","inputs":[{"name":"contextId","type":"bytes32","indexed":true,"internalType":"bytes32"},{"name":"members","type":"bytes32[]","indexed":false,"internalType":"bytes32[]"}],"anonymous":false},{"type":"event","name":"ProxyCodeUpdated","inputs":[{"name":"newCodeHash","type":"bytes32","indexed":false,"internalType":"bytes32"}],"anonymous":false},{"type":"event","name":"ProxyDeployed","inputs":[{"name":"contextId","type":"bytes32","indexed":true,"internalType":"bytes32"},{"name":"proxyAddress","type":"address","indexed":false,"internalType":"address"}],"anonymous":false},{"type":"event","name":"ProxyUpdated","inputs":[{"name":"contextId","type":"bytes32","indexed":true,"internalType":"bytes32"},{"name":"proxyAddress","type":"address","indexed":false,"internalType":"address"}],"anonymous":false},{"type":"error","name":"ContextAlreadyExists","inputs":[]},{"type":"error","name":"ContextNotFound","inputs":[]},{"type":"error","name":"InvalidNonce","inputs":[]},{"type":"error","name":"InvalidRequest","inputs":[]},{"type":"error","name":"InvalidSignature","inputs":[]},{"type":"error","name":"NotAMember","inputs":[]},{"type":"error","name":"ProxyBytecodeNotSet","inputs":[]},{"type":"error","name":"ProxyDeploymentFailed","inputs":[]},{"type":"error","name":"Unauthorized","inputs":[]}],"bytecode":{"object":"0x60c03461008157601f612e7b38819003918201601f19168301916001600160401b0383118484101761008557808492604094855283398101031261008157610052602061004b83610099565b9201610099565b9060805260a052604051612dcd90816100ae82396080518181816108430152611416015260a051816107a80152f35b5f80fd5b634e487b7160e01b5f52604160045260245ffd5b51906001600160a01b03821682036100815756fe60806040526004361015610011575f80fd5b5f3560e01c8063109bd37f1461012457806310d291081461011f578063322d3c681461011a57806340551e8f1461011557806345560dcb1461011057806345d9013d1461010b57806345fa157214610106578063532ff85214610101578063646d0f30146100fc5780636e3ee575146100f75780638da5cb5b146100f2578063af318c62146100ed578063b764d14e146100e8578063d8dd08b5146100e3578063e4db15d9146100de578063eee39111146100d95763fa540801146100d4575f80fd5b610b44565b610b27565b610aee565b610a34565b6109b4565b610945565b61082e565b6107d7565b610793565b610772565b610694565b610650565b6105a0565b6102c6565b610280565b610238565b6101b2565b805180835260209291819084018484015e5f828201840152601f01601f1916010190565b61019e9181518152602082015160208201526001600160401b036040830151166040820152608061018d606084015160a0606085015260a0840190610129565b920151906080818403910152610129565b90565b90602061019e92818152019061014d565b3461023457602036600319011261023457600435606060806040516101d681610321565b5f81525f60208201525f6040820152828082015201525f525f60205260405f2063ffffffff6001820154161561022557610215600261022192016104d5565b604051918291826101a1565b0390f35b633dd3da8f60e11b5f5260045ffd5b5f80fd5b34610234576020366003190112610234576004356001600160401b038111610234576080600319823603011261023457610276602091600401610f13565b6040519015158152f35b34610234576020366003190112610234576004356001600160401b0381116102345760a06003198236030112610234576102be6020916004016111ab565b604051908152f35b34610234576020366003190112610234576004355f525f60205260405f2063ffffffff6001820154161561022557600c01546040516001600160a01b039091168152602090f35b634e487b7160e01b5f52604160045260245ffd5b60a081019081106001600160401b0382111761033c57604052565b61030d565b604081019081106001600160401b0382111761033c57604052565b606081019081106001600160401b0382111761033c57604052565b90601f801991011681019081106001600160401b0382111761033c57604052565b90604051918281549182825260208201905f5260205f20925f5b8181106103c95750506103c792500383610377565b565b84548352600194850194879450602090930192016103b2565b604051906103c7604083610377565b906040516103fe81610341565b602063ffffffff6001839561041281610398565b8552015416910152565b90600182811c9216801561044a575b602083101461043657565b634e487b7160e01b5f52602260045260245ffd5b91607f169161042b565b5f92918154916104638361041c565b80835292600181169081156104b8575060011461047f57505050565b5f9081526020812093945091925b83831061049e575060209250010190565b60018160209294939454838587010152019101919061048d565b915050602093945060ff929192191683830152151560051b010190565b90600460806040516104e681610321565b610543819580548352600181015460208401526001600160401b036002820154166040840152604051610527816105208160038601610454565b0382610377565b606084015261053c6040518096819301610454565b0384610377565b0152565b90602080835192838152019201905f5b8181106105645750505090565b8251845260209384019390920191600101610557565b90602063ffffffff816105968551604086526040860190610547565b9401511691015290565b34610234576020366003190112610234576004355f525f60205261061c60405f206105ca816103f1565b906106466105da600283016104d5565b916106386105ea600783016103f1565b61062a6105f9600a85016103f1565b93600c60018060a01b03910154169560405198899860a08a5260a08a019061057a565b9088820360208a015261014d565b90868203604088015261057a565b90848203606086015261057a565b9060808301520390f35b34610234576020366003190112610234576004355f525f60205260405f2063ffffffff60018201541615610225576008015460405163ffffffff9091168152602090f35b34610234575f366003190112610234576040515f6002546106b48161041c565b808452906001811690811561074e57506001146106f0575b610221836106dc81850382610377565b604051918291602083526020830190610129565b60025f9081527f405787fa12a823e0f2b7631cc41b3ba8828b3321ca811111fa75cd3aa3bb5ace939250905b808210610734575090915081016020016106dc6106cc565b91926001816020925483858801015201910190929161071c565b60ff191660208086019190915291151560051b840190910191506106dc90506106cc565b34610234576040366003190112610234576020610276602435600435611270565b34610234575f366003190112610234576040517f00000000000000000000000000000000000000000000000000000000000000006001600160a01b03168152602090f35b3461023457604036600319011261023457600435602435905f525f60205260405f2063ffffffff60018201541615610225575f918252600d0160209081526040918290205491516001600160401b03909216825290f35b34610234575f366003190112610234576040517f00000000000000000000000000000000000000000000000000000000000000006001600160a01b03168152602090f35b634e487b7160e01b5f52602160045260245ffd5b6003111561089057565b610872565b9060038210156108905752565b602081016020825282518091526040820191602060408360051b8301019401925f915b8383106108d457505050505090565b9091929394603f19828203018352855160206060816040850193805186520151936040838201528451809452019201905f905b80821061092657505050602080600192970193019301919392906108c5565b9091926020808261093a6001948851610895565b019401920190610907565b34610234576040366003190112610234576004356024356001600160401b03811161023457366023820112156102345780600401356001600160401b038111610234573660248260051b84010111610234576102219260246109a89301906112d1565b604051918291826108a2565b34610234576020366003190112610234576004356001600160401b0381116102345736602382011215610234578060040135906001600160401b03821161023457366024838301011161023457610221916024610a119201611411565b60405190151581529081906020820190565b90602061019e928181520190610547565b346102345760603660031901126102345760043560243590604435905f525f60205260405f2063ffffffff610a70600183015463ffffffff1690565b16156102255760090190610a858383546115b0565b9080821015610ae65750905b610a9a826115df565b925f5b838110610ab257604051806102218782610a23565b80610ad5610acb610ac560019486611611565b86611256565b90549060031b1c90565b610adf828861162b565b5201610a9d565b905090610a91565b34610234576020366003190112610234576004355f525f60205263ffffffff600160405f20015416801561022557602090604051908152f35b34610234575f366003190112610234576020600154604051908152f35b346102345760203660031901126102345760206102be60043561163f565b903590609e1981360301821215610234570190565b3560ff811681036102345790565b6001600160401b0381160361023457565b6001111561023457565b6001600160401b03811161033c57601f01601f191660200190565b929192610bc782610ba0565b91610bd56040519384610377565b829481845281830111610234578281602093845f960137010152565b9080601f830112156102345781602061019e93359101610bbb565b60a0813603126102345760405190610c2382610321565b80358252602081013560208301526040810135610c3f81610b85565b60408301526060810135610c5281610b96565b60608301526080810135906001600160401b03821161023457610c7791369101610bf1565b608082015290565b6001111561089057565b3561019e81610b96565b903590601e198136030182121561023457018035906001600160401b0382116102345760200191813603831361023457565b6007111561023457565b602081830312610234578035906001600160401b03821161023457016060818303126102345760405191610d028361035c565b813583526020820135610d1481610cc5565b602084015260408201356001600160401b03811161023457610d369201610bf1565b604082015290565b6007111561089057565b81601f8201121561023457602081519101610d6282610ba0565b92610d706040519485610377565b8284528282011161023457815f926020928386015e8301015290565b919060a0838203126102345760405190610da582610321565b819380518352602081015160208401526040810151610dc381610b85565b604084015260608101516001600160401b0381116102345782610de7918301610d48565b60608401526080810151916001600160401b03831161023457608092610e0d9201610d48565b910152565b906020828203126102345781516001600160401b0381116102345761019e9201610d8c565b9190826040910312610234576020825192015160038110156102345790565b6001600160401b03811161033c5760051b60200190565b602081830312610234578051906001600160401b03821161023457019080601f83011215610234578151610ea081610e56565b92610eae6040519485610377565b81845260208085019260051b82010192831161023457602001905b828210610ed65750505090565b8151815260209182019101610ec9565b9190916040818403126102345780519260208201516001600160401b0381116102345761019e9201610d8c565b610f5e610f5a610f2b610f268480610b62565b6111ab565b60208401356040850135610f4160608701610b77565b91610f54610f4f8880610b62565b610c0c565b936116f0565b1590565b61119c57610f776060610f718380610b62565b01610c89565b610f8081610c7f565b15610f95575b6341abc80160e01b5f5260045ffd5b610fb7610faf610fa58380610b62565b6080810190610c93565b810190610ccf565b602081018051610fc681610d3e565b610fcf81610d3e565b610ff8575061019e9150610ff0604082015160208082518301019101610ee6565b9151906123e9565b6001815161100581610d3e565b61100e81610d3e565b03611044575061019e91602061103c6110336040850151838082518301019101610e6d565b93519280610b62565b0135906121b0565b6002815161105181610d3e565b61105a81610d3e565b03611087575061019e91602061107f6110336040850151838082518301019101610e6d565b013590612045565b6003815161109481610d3e565b61109d81610d3e565b036110d657508061019e9260206110c360406110ce950151828082518301019101610e37565b949093519280610b62565b013590611f55565b600481516110e381610d3e565b6110ec81610d3e565b0361111a57508061019e9260206110c36040611112950151828082518301019101610e37565b013590611dc4565b6005815161112781610d3e565b61113081610d3e565b03611150575090602061114861019e93519280610b62565b013590611cf0565b6006905161115d81610d3e565b61116681610d3e565b14611175575050505f80610f86565b61019e9160206111946110336040850151838082518301019101610e12565b013590611b6a565b638baa579f60e01b5f5260045ffd5b8035906001600160401b0360208201359160408101356111ca81610b85565b6111dc606083013592610fa584610b96565b939091604051956020870197885260408701521660608501526001821015610890578261123c93859260e094608085015260a0808501528160c0850152848401375f838284010152601f801991011681010301601f198101835282610377565b51902090565b634e487b7160e01b5f52603260045260245ffd5b805482101561126b575f5260205f2001905f90565b611242565b5f525f60205260405f209063ffffffff600183015416156112cb5760095f92018054925b8381106112a357505050505f90565b826112ae8284611256565b90549060031b1c146112c257600101611294565b50505050600190565b50505f90565b9291925f525f60205260405f2063ffffffff60018201541615610225576112f781610398565b90611310600a61130960078401610398565b9201610398565b9161131a86610e56565b936113286040519586610377565b868552602085019660051b81019036821161023457965b81881061135357505061019e9495506125b5565b873581526020978801970161133f565b9161137c9183549060031b91821b915f19901b19161790565b9055565b81811061138b575050565b5f8155600101611380565b90601f82116113a3575050565b6103c79160025f5260205f20906020601f840160051c830193106113cf575b601f0160051c0190611380565b90915081906113c2565b9190601f81116113e857505050565b6103c7925f5260205f20906020601f840160051c830193106113cf57601f0160051c0190611380565b9091907f00000000000000000000000000000000000000000000000000000000000000006001600160a01b0316330361157b576001600160401b03831161033c576114668361146160025461041c565b611396565b5f92601f81116001146114f257908161149c816114a7946114b396975f916114e7575b508160011b915f199060031b1c19161790565b6002555b3691610bbb565b60208151910120600155565b6001546040519081527ff9c3d1ad77d73dd002f901cbb67e070efc4d913014680d59ebccaf8a81b739fd90602090a1600190565b90508401355f611489565b60025f52601f1981167f405787fa12a823e0f2b7631cc41b3ba8828b3321ca811111fa75cd3aa3bb5ace905f5b8181106115635750906114b39495836114a79594931061154a575b5050600181811b016002556114a0565b8301355f19600384901b60f8161c191690555f8061153a565b8487013583556020968701966001909301920161151f565b6282b42960e81b5f5260045ffd5b634e487b7160e01b5f52601160045260245ffd5b5f198101919082116115ab57565b611589565b919082039182116115ab57565b604080519091906115ce8382610377565b6001815291601f1901366020840137565b906115e982610e56565b6115f66040519182610377565b8281528092611607601f1991610e56565b0190602036910137565b919082018092116115ab57565b80511561126b5760200190565b805182101561126b5760209160051b010190565b60405160208101917f19457468657265756d205369676e6564204d6573736167653a0a3332000000008352603c820152603c815261123c605c82610377565b6040513d5f823e3d90fd5b602081830312610234578051906001600160401b038211610234570160608183031261023457604051916116bc8361035c565b8151835260208201516116ce81610cc5565b602084015260408201516001600160401b03811161023457610d369201610d48565b906117295f936117026020969461163f565b92604051948594859094939260ff6060936080840197845216602083015260408201520152565b838052039060015afa15611961575f51906001600160a01b038216801561119c5781510361119c57611768608082015160208082518301019101611689565b9160208301805161177881610d3e565b61178181610d3e565b156112c25761179884515f525f60205260405f2090565b63ffffffff6117ae600183015463ffffffff1690565b161561022557600d0192602081019360406117e26117d5875184905f5260205260405f2090565b546001600160401b031690565b9201916001600160401b0361180d61180185516001600160401b031690565b6001600160401b031690565b911610156119525761183b61182c61185693516001600160401b031690565b9186515f5260205260405f2090565b906001600160401b03166001600160401b0319825416179055565b6003815161186381610d3e565b61186c81610d3e565b148015611935575b611927576001815161188581610d3e565b61188e81610d3e565b14908115611909575b506118a9575051905161019e9161295c565b6118d77fb0341be26526fd334c6b99fc5836734017e4ee26c8cac575c998f51b5cb464e8925184519061299e565b9251604080519182526001600160a01b0392909216602082015283151591810191909152606090a11561157b57600190565b600291505161191781610d3e565b61192081610d3e565b145f611897565b505051905161019e9161295c565b506004815161194381610d3e565b61194c81610d3e565b14611874565b633ab3447f60e11b5f5260045ffd5b61167e565b91909182516001600160401b03811161033c5761198d81611987845461041c565b846113d9565b6020601f82116001146119c857819061137c9394955f926119bd575b50508160011b915f199060031b1c19161790565b015190505f806119a9565b601f198216906119db845f5260205f2090565b915f5b818110611a15575095836001959697106119fd575b505050811b019055565b01515f1960f88460031b161c191690555f80806119f3565b9192602060018192868b0151815501940192016119de565b908051825560208101516001830155611a6c6001600160401b0360408301511660028401906001600160401b03166001600160401b0319825416179055565b6003820160608201518051906001600160401b03821161033c57611a9a82611a94855461041c565b856113d9565b602090601f8311600114611adf5792611ad3836080946103c79897946004975f926119bd5750508160011b915f199060031b1c19161790565b90555b01519101611966565b90601f19831691611af3855f5260205f2090565b925f5b818110611b3b5750936103c7979693600496936001938360809810611b23575b505050811b019055611ad6565b01515f1960f88460031b161c191690555f8080611b16565b92936020600181928786015181550195019301611af6565b63ffffffff1663ffffffff81146115ab5760010190565b91825f525f60205260405f2090600182019263ffffffff845416156102255784611b93916129f6565b1561157b578051600283015560208101516003830155611bd96001600160401b0360408301511660048401906001600160401b03166001600160401b0319825416179055565b6005820160608201518051906001600160401b03821161033c57611c0182611a94855461041c565b602090601f8311600114611c915793611c68969593611ad384600695608095611c3e995f926119bd5750508160011b915f199060031b1c19161790565b611c54611c4f825463ffffffff1690565b611b53565b63ffffffff1663ffffffff19825416179055565b7f125b34df02af85f955fd646ed8f7861a8db441fe7ecfbb76fb3b61c1c46dfa5d5f80a2600190565b90601f19831691611ca5855f5260205f2090565b925f5b818110611cd8575084608094611c3e9894611c689b9a989460069860019510611b2357505050811b019055611ad6565b92936020600181928786015181550195019301611ca8565b90815f525f60205263ffffffff611d11600160405f20015463ffffffff1690565b161561022557610f5a82611d2492612a45565b61157b57611d3360025461041c565b15611d64576001600160a01b0390611d4a90612c58565b1615611d5557600190565b631b0a7c4160e31b5f5260045ffd5b630548573b60e51b5f5260045ffd5b80548015611d9a575f190190611d898282611256565b8154905f199060031b1b1916905555565b634e487b7160e01b5f52603160045260245ffd5b9081526040810192916103c79160200190610895565b919290611dd8835f525f60205260405f2090565b9063ffffffff611def600184015463ffffffff1690565b161561022557610f5a8385611e0393612abe565b61157b57611e1082610886565b60018203611eec57925b5f5b845480821015611ec15782611e34610acb8489611256565b14611e425750600101611e1c565b9485611e8192611e737f6ad490b41f4fadf591eacc3c1f01b170204452824bc9fb640a19a08b56006bdb979861159d565b8103611e98575b5050611d73565b611e9060405192839283611dae565b0390a2600190565b611eb4611ead610acb610ac5611eba9561159d565b9184611256565b90611363565b5f80611e7a565b50507f6ad490b41f4fadf591eacc3c1f01b170204452824bc9fb640a19a08b56006bdb929350611e81565b611ef582610886565b81611f035760070192611e1a565b611f0c82610886565b60028203610f8657600a0192611e1a565b805490600160401b82101561033c5781611f3f91600161137c94018155611256565b819391549060031b91821b915f19901b19161790565b929091611f69845f525f60205260405f2090565b600181019363ffffffff611f81865463ffffffff1690565b161561022557610f5a8487611f9593612abe565b61157b577f8bb025597f505b0de50fb6e19dd0a24dce5bae03a16188f96047200c50aabed393611fc484610886565b8260018503611fda57611c3e90611e8193611f1d565b5050611fe583610886565b8261201457600881611ffd84600761200f9501611f1d565b01611c54611c4f825463ffffffff1690565b611e81565b61201d83610886565b6002831461202c575b50611e81565b600b81611ffd84600a61203f9501611f1d565b5f612026565b919290612059835f525f60205260405f2090565b9063ffffffff612070600184015463ffffffff1690565b161561022557610f5a846120839261299e565b61157b579092915f9160098101935b8051841015612162576120a5848261162b565b51925f5b86548082101561215357856120c1610acb848b611256565b146120cf57506001016120a9565b6001939894958861211e93836120ea61210d959b979b61159d565b8203612128575b50506120fc90611d73565b600d8701905f5260205260405f2090565b805467ffffffffffffffff19169055565b0192919094612092565b612144610acb61214b9461213e611eb49461159d565b90611256565b918c611256565b885f806120f1565b5050936001919692935061211e565b90611e909294507fd813dd3a2142e9749113fda573af3919a9ea86138367b533a83646d168c78649935060086121a49101611c54611c4f825463ffffffff1690565b60405191829182610a23565b909291926121c5825f525f60205260405f2090565b9063ffffffff6121dc600184015463ffffffff1690565b161561022557610f5a836121ef9261299e565b61157b5790916009820191905f5b855181101561227357612210818761162b565b515f5f8654905b81811061224a575b5050906001929115612233575b50016121fd565b61210d816120fc6122449389611f1d565b5f61222c565b83612258610acb838b611256565b1461226557600101612217565b50600191508190505f61221f565b50937fcd0872f64372d24eb000f5c8ed17f543d1159573e32472394d5185dd3845057492506121a46008611e909301611c54611c4f825463ffffffff1690565b8151916001600160401b03831161033c57600160401b831161033c578154838355808410612311575b5060206122ee9101915f5260205f2090565b5f5b8381106122fd5750505050565b6001906020845194019381840155016122f0565b825f528360205f2091820191015b81811061232c57506122dc565b5f815560010161231f565b9080518051906001600160401b03821161033c57600160401b821161033c5783548285558083106123c3575b50602001612374845f5260205f2090565b5f5b8381106123af575050505090600161239860206103c794015163ffffffff1690565b91019063ffffffff1663ffffffff19825416179055565b600190602084519401938184015501612376565b845f528260205f2091820191015b8181106123de5750612363565b5f81556001016123d1565b909163ffffffff6124116001612406865f525f60205260405f2090565b015463ffffffff1690565b1661253c5761241e6115bd565b91806124298461161e565b526124326103e2565b928352600160208401526124446115bd565b918161244f8461161e565b5261245b60025461041c565b15611d645761246985612c58565b936001600160a01b03851615611d555782600d61252c9361251e7f58305c4d178f066e2d27b9703ee4320a430d0cf1109525c2ccfa9cf0cb033793986124fb61210d966124f2611e909b6124dc8f6124c8905f525f60205260405f2090565b976124d3858a612337565b60028901611a2d565b6124e98360078901612337565b600987016122b3565b600a8501612337565b600c830180546001600160a01b0319166001600160a01b03909216919091179055565b01905f5260205260405f2090565b6040519081529081906020820190565b63f59b445960e01b5f5260045ffd5b9061255582610e56565b6125626040519182610377565b8281528092612573601f1991610e56565b01905f5b82811061258357505050565b60209060405161259281610341565b5f815260608382015282828501015201612577565b5f1981146115ab5760010190565b9392919091805180155f146128545750506125e66125e16125d98651855190611611565b835190611611565b6115df565b915f915f5b865181101561263e578061260f610f5a6126076001948b61162b565b518789612d6a565b61261a575b016125eb565b612624818961162b565b51612638612631876125a7565b968861162b565b52612614565b509390945f5b86518110156126885780612660610f5a6126076001948b61162b565b61266b575b01612644565b612675818961162b565b51612682612631876125a7565b52612665565b509390945f5b82518110156126d257806126aa610f5a6126076001948761162b565b6126b5575b0161268e565b6126bf818561162b565b516126cc612631876125a7565b526126af565b509391926126df8461254b565b945f5b8581106126f25750505050505090565b806126ff6001928561162b565b5161270a828a61162b565b51525f61272161271a838761162b565b5188612d45565b61284d575b6127599061273e612737848861162b565b5186612d45565b61283f575b61275061271a848861162b565b612836576115df565b6020612765838b61162b565b5101525f61277661271a838761162b565b61280e575b61278f612788838761162b565b5185612d45565b6127e5575b6127a86127a1838761162b565b5187612d45565b6127b4575b50016126e2565b6127d96127df9160206127c7858d61162b565b5101516127d3826125a7565b5061162b565b60029052565b5f6127ad565b5f61280860206127f5858d61162b565b51015192612802816125a7565b9361162b565b52612794565b50602061281b828a61162b565b51015161283161282b849261161e565b60019052565b61277b565b6125e1906125a7565b612848906125a7565b612743565b5081612726565b61285d9061254b565b925f5b825181101561295357806128766001928561162b565b51612881828861162b565b51525f612898612891838761162b565b518a612d45565b61294c575b6128ae9061273e612737848861162b565b60206128ba838961162b565b5101525f6128cb612891838761162b565b61292a575b6128dd612788838761162b565b612914575b6128ef6127a1838761162b565b6128fb575b5001612860565b6127d961290e9160206127c7858b61162b565b5f6128f4565b5f61292460206127f5858b61162b565b526128e2565b506020612937828861162b565b51015161294761282b849261161e565b6128d0565b508161289d565b50929450505050565b5f9182526020829052604082206007018054925b83811061297f57505050505f90565b8261298a8284611256565b90549060031b1c146112c257600101612970565b905f525f60205260405f2063ffffffff600182015416156112cb576007906129c55f610886565b01805491905f5b8381106129db57505050505f90565b826129e9610acb8385611256565b146112c2576001016129cc565b905f525f60205260405f209063ffffffff600183015416156112cb578154915f5b838110612a2657505050505f90565b82612a318284611256565b90549060031b1c146112c257600101612a17565b905f525f60205260405f2063ffffffff612a66600183015463ffffffff1690565b16156112cb57600a90612a796002610886565b612a836002610886565b612a8d6002610886565b01805491905f5b838110612aa357505050505f90565b82612ab1610acb8385611256565b146112c257600101612a94565b9190612ad1905f525f60205260405f2090565b9063ffffffff612ae8600184015463ffffffff1690565b1615612b3057612af781610886565b60018103612b375750905b5f5b8254811015612b305781612b1b610acb8386611256565b14612b2857600101612b04565b505050600190565b5050505f90565b612b4081610886565b80612b4f575060070190612b02565b80612b5b600292610886565b036112cb57600a0190612b02565b63ffffffff60019116019063ffffffff82116115ab57565b805191908290602001825e015f815290565b9060405191825f600254612ba68161041c565b9060018116908115612c345750600114612bd7575b50612bc9906103c793612b81565b03601f198101845283610377565b60025f9081529091507f405787fa12a823e0f2b7631cc41b3ba8828b3321ca811111fa75cd3aa3bb5ace5b828210612c1857505081016020016103c7612bbb565b602091929350806001915483858a010152019101859291612c02565b60ff1916602085810191909152821515909202840190910191506103c79050612bbb565b612c6360025461041c565b15611d6457612c79815f525f60205260405f2090565b63ffffffff612c8f600183015463ffffffff1690565b16612d1e5750612d04612cd2612cff60015b604080516020810187815260e09390931b6001600160e01b03191691810191909152426044820152612ce081606481015b03601f198101835282610377565b5190206040805160208101969096523090860152939182906060820190565b612b93565b6020815191015ff56001600160a01b03811615611d555790565b612cd2612cff612d40612d3b600b612d0495015463ffffffff1690565b612b69565b612ca1565b905f5b8251811015612b305781612d5c828561162b565b5114612b2857600101612d48565b9190915f5b838110612d7e57505050505f90565b82612d89828461162b565b51146112c257600101612d6f56fea2646970667358221220248b09f285ea451cdb788dfd6f8c4b815a9e9620d17b022a19aa1c98750af11764736f6c634300081c0033","linkReferences":{}},"methodIdentifiers":{"application(bytes32)":"109bd37f","applicationRevision(bytes32)":"e4db15d9","contexts(bytes32)":"45560dcb","fetchNonce(bytes32,bytes32)":"6e3ee575","getEthSignedMessageHash(bytes32)":"fa540801","getMessageHash((bytes32,bytes32,uint64,uint8,bytes))":"322d3c68","hasMember(bytes32,bytes32)":"532ff852","ledgerId()":"646d0f30","members(bytes32,uint256,uint256)":"d8dd08b5","membersRevision(bytes32)":"45d9013d","mutate(((bytes32,bytes32,uint64,uint8,bytes),bytes32,bytes32,uint8))":"10d29108","owner()":"8da5cb5b","privileges(bytes32,bytes32[])":"af318c62","proxyBytecode()":"45fa1572","proxyCodeHash()":"eee39111","proxyContract(bytes32)":"40551e8f","setProxyCode(bytes)":"b764d14e"},"id":0}