{"abi":[{"type":"constructor","inputs":[{"name":"_contextId","type":"bytes32","internalType":"bytes32"},{"name":"_owner","type":"address","internalType":"address"}],"stateMutability":"nonpayable"},{"type":"fallback","stateMutability":"payable"},{"type":"receive","stateMutability":"payable"},{"type":"function","name":"activeProposalsLimit","inputs":[],"outputs":[{"name":"","type":"uint32","internalType":"uint32"}],"stateMutability":"view"},{"type":"function","name":"approvals","inputs":[{"name":"","type":"bytes32","internalType":"bytes32"},{"name":"","type":"uint256","internalType":"uint256"}],"outputs":[{"name":"","type":"bytes32","internalType":"bytes32"}],"stateMutability":"view"},{"type":"function","name":"contextConfigId","inputs":[],"outputs":[{"name":"","type":"address","internalType":"address"}],"stateMutability":"view"},{"type":"function","name":"contextId","inputs":[],"outputs":[{"name":"","type":"bytes32","internalType":"bytes32"}],"stateMutability":"view"},{"type":"function","name":"contextStorage","inputs":[{"name":"","type":"bytes","internalType":"bytes"}],"outputs":[{"name":"","type":"bytes","internalType":"bytes"}],"stateMutability":"view"},{"type":"function","name":"contextStorageEntries","inputs":[{"name":"fromIndex","type":"uint32","internalType":"uint32"},{"name":"limit","type":"uint32","internalType":"uint32"}],"outputs":[{"name":"","type":"bytes[]","internalType":"bytes[]"},{"name":"","type":"bytes[]","internalType":"bytes[]"}],"stateMutability":"view"},{"type":"function","name":"getActiveProposalsLimit","inputs":[],"outputs":[{"name":"","type":"uint32","internalType":"uint32"}],"stateMutability":"view"},{"type":"function","name":"getConfirmationsCount","inputs":[{"name":"proposalId","type":"bytes32","internalType":"bytes32"}],"outputs":[{"name":"","type":"tuple","internalType":"struct ContextProxy.ProposalWithApprovals","components":[{"name":"proposalId","type":"bytes32","internalType":"bytes32"},{"name":"numApprovals","type":"uint32","internalType":"uint32"}]}],"stateMutability":"view"},{"type":"function","name":"getContextValue","inputs":[{"name":"key","type":"bytes","internalType":"bytes"}],"outputs":[{"name":"","type":"bytes","internalType":"bytes"}],"stateMutability":"view"},{"type":"function","name":"getEthSignedMessageHash","inputs":[{"name":"messageHash","type":"bytes32","internalType":"bytes32"}],"outputs":[{"name":"","type":"bytes32","internalType":"bytes32"}],"stateMutability":"pure"},{"type":"function","name":"getMessageHash","inputs":[{"name":"request","type":"tuple","internalType":"struct ContextProxy.Request","components":[{"name":"signerId","type":"bytes32","internalType":"bytes32"},{"name":"userId","type":"bytes32","internalType":"bytes32"},{"name":"kind","type":"uint8","internalType":"enum ContextProxy.RequestKind"},{"name":"data","type":"bytes","internalType":"bytes"}]}],"outputs":[{"name":"","type":"bytes32","internalType":"bytes32"}],"stateMutability":"pure"},{"type":"function","name":"getNumApprovals","inputs":[],"outputs":[{"name":"","type":"uint32","internalType":"uint32"}],"stateMutability":"view"},{"type":"function","name":"getProposal","inputs":[{"name":"proposalId","type":"bytes32","internalType":"bytes32"}],"outputs":[{"name":"","type":"tuple","internalType":"struct ContextProxy.Proposal","components":[{"name":"id","type":"bytes32","internalType":"bytes32"},{"name":"authorId","type":"bytes32","internalType":"bytes32"},{"name":"actions","type":"tuple[]","internalType":"struct ContextProxy.ProposalAction[]","components":[{"name":"kind","type":"uint8","internalType":"enum ContextProxy.ProposalActionKind"},{"name":"data","type":"bytes","internalType":"bytes"}]}]}],"stateMutability":"view"},{"type":"function","name":"getProposals","inputs":[{"name":"fromIndex","type":"uint32","internalType":"uint32"},{"name":"limit","type":"uint32","internalType":"uint32"}],"outputs":[{"name":"","type":"tuple[]","internalType":"struct ContextProxy.Proposal[]","components":[{"name":"id","type":"bytes32","internalType":"bytes32"},{"name":"authorId","type":"bytes32","internalType":"bytes32"},{"name":"actions","type":"tuple[]","internalType":"struct ContextProxy.ProposalAction[]","components":[{"name":"kind","type":"uint8","internalType":"enum ContextProxy.ProposalActionKind"},{"name":"data","type":"bytes","internalType":"bytes"}]}]}],"stateMutability":"view"},{"type":"function","name":"mutate","inputs":[{"name":"signedRequest","type":"tuple","internalType":"struct ContextProxy.SignedRequest","components":[{"name":"payload","type":"tuple","internalType":"struct ContextProxy.Request","components":[{"name":"signerId","type":"bytes32","internalType":"bytes32"},{"name":"userId","type":"bytes32","internalType":"bytes32"},{"name":"kind","type":"uint8","internalType":"enum ContextProxy.RequestKind"},{"name":"data","type":"bytes","internalType":"bytes"}]},{"name":"r","type":"bytes32","internalType":"bytes32"},{"name":"s","type":"bytes32","internalType":"bytes32"},{"name":"v","type":"uint8","internalType":"uint8"}]}],"outputs":[{"name":"","type":"tuple","internalType":"struct ContextProxy.ProposalWithApprovals","components":[{"name":"proposalId","type":"bytes32","internalType":"bytes32"},{"name":"numApprovals","type":"uint32","internalType":"uint32"}]}],"stateMutability":"nonpayable"},{"type":"function","name":"numApprovals","inputs":[],"outputs":[{"name":"","type":"uint32","internalType":"uint32"}],"stateMutability":"view"},{"type":"function","name":"numProposalsPk","inputs":[{"name":"","type":"bytes32","internalType":"bytes32"}],"outputs":[{"name":"","type":"uint32","internalType":"uint32"}],"stateMutability":"view"},{"type":"function","name":"proposalApprovalsWithSigner","inputs":[{"name":"proposalId","type":"bytes32","internalType":"bytes32"}],"outputs":[{"name":"","type":"tuple[]","internalType":"struct ContextProxy.ProposalApprovalWithSigner[]","components":[{"name":"proposalId","type":"bytes32","internalType":"bytes32"},{"name":"userId","type":"bytes32","internalType":"bytes32"}]}],"stateMutability":"view"},{"type":"function","name":"proposalApprovers","inputs":[{"name":"proposalId","type":"bytes32","internalType":"bytes32"}],"outputs":[{"name":"","type":"bytes32[]","internalType":"bytes32[]"}],"stateMutability":"view"},{"type":"function","name":"proposals","inputs":[{"name":"","type":"bytes32","internalType":"bytes32"}],"outputs":[{"name":"id","type":"bytes32","internalType":"bytes32"},{"name":"authorId","type":"bytes32","internalType":"bytes32"}],"stateMutability":"view"},{"type":"function","name":"upgrade","inputs":[{"name":"implementation","type":"address","internalType":"address"},{"name":"contextAddress","type":"address","internalType":"address"}],"outputs":[],"stateMutability":"nonpayable"},{"type":"event","name":"ActiveProposalsLimitChanged","inputs":[{"name":"oldValue","type":"uint32","indexed":false,"internalType":"uint32"},{"name":"newValue","type":"uint32","indexed":false,"internalType":"uint32"}],"anonymous":false},{"type":"event","name":"ContextValueSet","inputs":[{"name":"key","type":"bytes","indexed":false,"internalType":"bytes"},{"name":"value","type":"bytes","indexed":false,"internalType":"bytes"}],"anonymous":false},{"type":"event","name":"ExternalCallExecuted","inputs":[{"name":"target","type":"address","indexed":false,"internalType":"address"},{"name":"selector","type":"bytes4","indexed":false,"internalType":"bytes4"},{"name":"value","type":"uint256","indexed":false,"internalType":"uint256"}],"anonymous":false},{"type":"event","name":"NumApprovalsChanged","inputs":[{"name":"oldValue","type":"uint32","indexed":false,"internalType":"uint32"},{"name":"newValue","type":"uint32","indexed":false,"internalType":"uint32"}],"anonymous":false},{"type":"event","name":"ProposalApproved","inputs":[{"name":"proposalId","type":"bytes32","indexed":true,"internalType":"bytes32"},{"name":"signerId","type":"bytes32","indexed":false,"internalType":"bytes32"},{"name":"numApprovals","type":"uint32","indexed":false,"internalType":"uint32"}],"anonymous":false},{"type":"event","name":"ProposalCreated","inputs":[{"name":"proposalId","type":"bytes32","indexed":true,"internalType":"bytes32"},{"name":"authorId","type":"bytes32","indexed":false,"internalType":"bytes32"}],"anonymous":false},{"type":"event","name":"ProposalDeleted","inputs":[{"name":"proposalId","type":"bytes32","indexed":true,"internalType":"bytes32"}],"anonymous":false},{"type":"event","name":"ProposalExecuted","inputs":[{"name":"proposalId","type":"bytes32","indexed":true,"internalType":"bytes32"}],"anonymous":false},{"type":"event","name":"TokenTransferred","inputs":[{"name":"to","type":"address","indexed":false,"internalType":"address"},{"name":"amount","type":"uint256","indexed":false,"internalType":"uint256"}],"anonymous":false},{"type":"error","name":"AlreadyInitialized","inputs":[]},{"type":"error","name":"InsufficientBalance","inputs":[]},{"type":"error","name":"InvalidAction","inputs":[]},{"type":"error","name":"ProposalAlreadyApproved","inputs":[]},{"type":"error","name":"ProposalNotFound","inputs":[]},{"type":"error","name":"TooManyActiveProposals","inputs":[]},{"type":"error","name":"Unauthorized","inputs":[]}],"bytecode":{"object":"0x608034608e57601f6125d038819003918201601f19168301916001600160401b038311848410176092578084926040948552833981010312608e5780516020909101516001600160a01b0381169190829003608e575f55600180546001600160c01b031916909117600360a01b1790556005805463ffffffff1916600a17905560405161252990816100a78239f35b5f80fd5b634e487b7160e01b5f52604160045260245ffdfe60806040526004361015610015575b366114ea57005b5f3560e01c8063068127191461015a57806316ba2943146101325780631cd9aa0e1461012d57806331eadd0c1461015557806332ed5b121461015057806339c501571461014b578063430694cf1461014657806346f5cf1e146101415780635227206d1461013c5780635aef3986146101375780635fe3eb58146101325780637403c5e51461012d578063789250211461012857806399a88ec414610123578063a33782991461011e578063b20732c814610119578063b3a8982914610114578063b61bf0bb1461010f578063e271da6a1461010a578063f8c12444146101055763fa5408010361000e57610e23565b610e03565b610dd3565b610db4565b610d62565b610b63565b610a98565b61096c565b610914565b610360565b61033d565b6108b2565b610876565b6107dd565b610722565b610588565b61042f565b6103bf565b61023a565b63ffffffff81160361016d57565b5f80fd5b604090600319011261016d576004356101898161015f565b906024356101968161015f565b90565b805180835260209291819084018484015e5f828201840152601f01601f1916010190565b9080602083519182815201916020808360051b8301019401925f915b8383106101e857505050505090565b9091929394602080610206600193601f198682030187528951610199565b970193019301919392906101d9565b909161022c610196936040845260408401906101bd565b9160208184039101526101bd565b3461016d5761024836610171565b905f9160075463ffffffff8316908082106102ff575b50505061026a82610e79565b9161027481610e79565b925f5b63ffffffff8116838110156102ec57906102e16102e7926102d06102cb6102af6102a96102a4878c610ef1565b6108e2565b50610cc4565b806102ba858a610f0b565b526102c58489610f0b565b50610c6d565b610cc4565b6102da828a610f0b565b5287610f0b565b50610ec2565b610277565b604051806102fb888683610215565b0390f35b9080929394508103928184116103385763ffffffff168093105f14610331576103289250610e55565b905f808061025e565b5050610328565b610e41565b3461016d575f36600319011261016d57602063ffffffff60055416604051908152f35b3461016d575f36600319011261016d57602063ffffffff60015460a01c16604051908152f35b60206040818301928281528451809452019201905f5b8181106103a95750505090565b825184526020938401939092019160010161039c565b3461016d57602036600319011261016d576004355f52600360205260405f206040519081602082549182815201915f5260205f20905f5b818110610419576102fb8561040d81870382610bda565b60405191829182610386565b82548452602090930192600192830192016103f6565b3461016d57602036600319011261016d576004355f52600260205260405f2060018154910154906102fb6040519283928360209093929193604081019481520152565b634e487b7160e01b5f52602160045260245ffd5b6006111561049057565b610472565b906040606082019280518352602081015160208401520151916060604083015282518091526080820190602060808260051b8501019401925f905b8282106104df57505050505090565b9091929394607f1982820301855285519081519160068310156104905761051c826040602080959460019782965201519181858201520190610199565b97019501939201906104d0565b602081016020825282518091526040820191602060408360051b8301019401925f915b83831061055b57505050505090565b9091929394602080610579600193603f198682030187528951610495565b9701930193019193929061054c565b3461016d5761059636610171565b5f61059f610f1f565b905f5b8251811080610701575b1561062b5760405160208101906105d9816105cb858560209181520190565b03601f198101835282610bda565b519020806105ef815f52600260205260405f2090565b5414610605575b5061060090610f42565b6105a2565b826106249161061e63ffffffff61060095961687610f0b565b52610ec2565b91906105f6565b5063ffffffff919392835f92848116858316106106ce575b5050501661065081610f89565b925f5b63ffffffff8116838110156106c057816106b86001926106a76106a261069361068d61068463ffffffff998d610ef1565b63ffffffff1690565b89610f0b565b515f52600260205260405f2090565b61100c565b6106b1828b610f0b565b5288610f0b565b500116610653565b604051806102fb8882610529565b909192506106dc8282610f50565b83851690851610156106fa576106f29250610f50565b5f8381610643565b50506106f2565b50606463ffffffff8316106105ac565b906020610196928181520190610495565b3461016d57602036600319011261016d5760043561073e610f6a565b505f52600260205260405f2060026040519161075983610b9f565b80548352600181015460208401520190815461077481610e62565b926107826040519485610bda565b81845260208401905f5260205f205f915b8383106107ae57604080860187905251806102fb8782610711565b600260206001926107be85610fd8565b815201920192019190610793565b906020610196928181520190610199565b3461016d57602036600319011261016d576004356001600160401b03811161016d573660238201121561016d5780600401356001600160401b03811161016d57366024828401011161016d576102cb61083c9160246102fb9401611086565b604051918291826107cc565b602060031982011261016d576004356001600160401b03811161016d576080906004018092031261016d5790565b3461016d576102fb61088f61088a36610848565b6112e3565b60405191829182919091602063ffffffff81604084019580518552015116910152565b3461016d575f36600319011261016d5760205f54604051908152f35b634e487b7160e01b5f52603260045260245ffd5b6007548110156108fa5760075f5260205f2001905f90565b6108ce565b80548210156108fa575f5260205f2001905f90565b3461016d57604036600319011261016d57600435602435905f52600360205260405f20805482101561016d5760209161094c916108ff565b90549060031b1c604051908152f35b6001600160a01b0381160361016d57565b3461016d57604036600319011261016d576004356109898161095b565b6024356109958161095b565b60018060a01b031680331490811591610a3d575b50610a2f57803b156109e057803b156109e0577f360894a13ba1a3210667c828492db98dca3e2076cc3735a920a3ca505d382bbc55005b60405162461bcd60e51b815260206004820152602160248201527f496d706c656d656e746174696f6e206d757374206265206120636f6e747261636044820152601d60fa1b6064820152608490fd5b6282b42960e81b5f5260045ffd5b6001546001600160a01b0316141590505f6109a9565b60206040818301928281528451809452019201905f5b818110610a765750505090565b8251805185526020908101518186015260409094019390920191600101610a69565b3461016d57602036600319011261016d57600435805f52600360205260405f2090815490610ac582610e62565b92610ad36040519485610bda565b828452601f19610ae284610e62565b015f5b818110610b4c5750505f5b838110610b0557604051806102fb8782610a53565b80610b1f610b15600193856108ff565b90549060031b1c90565b610b27610bfb565b908582526020820152610b3a8288610f0b565b52610b458187610f0b565b5001610af0565b602090610b5761109f565b82828901015201610ae5565b3461016d575f36600319011261016d576001546040516001600160a01b039091168152602090f35b634e487b7160e01b5f52604160045260245ffd5b606081019081106001600160401b03821117610bba57604052565b610b8b565b604081019081106001600160401b03821117610bba57604052565b90601f801991011681019081106001600160401b03821117610bba57604052565b60405190610c0a604083610bda565b565b6001600160401b038111610bba57601f01601f191660200190565b81601f8201121561016d57803590610c3e82610c0c565b92610c4c6040519485610bda565b8284526020838301011161016d57815f926020809301838601378301015290565b60208091604051928184925191829101835e8101600681520301902090565b90600182811c92168015610cba575b6020831014610ca657565b634e487b7160e01b5f52602260045260245ffd5b91607f1691610c9b565b9060405191825f825492610cd784610c8c565b8084529360018116908115610d405750600114610cfc575b50610c0a92500383610bda565b90505f9291925260205f20905f915b818310610d24575050906020610c0a928201015f610cef565b6020919350806001915483858901015201910190918492610d0b565b905060209250610c0a94915060ff191682840152151560051b8201015f610cef565b3461016d57602036600319011261016d576004356001600160401b03811161016d57610da06102cb610d9b6102fb933690600401610c27565b610c6d565b604051918291602083526020830190610199565b3461016d57602036600319011261016d576102fb61088f6004356113d0565b3461016d57602036600319011261016d576004355f526004602052602063ffffffff60405f205416604051908152f35b3461016d576020610e1b610e1636610848565b611431565b604051908152f35b3461016d57602036600319011261016d576020610e1b6004356114ab565b634e487b7160e01b5f52601160045260245ffd5b9190820391821161033857565b6001600160401b038111610bba5760051b60200190565b90610e8382610e62565b610e906040519182610bda565b8281528092610ea1601f1991610e62565b01905f5b828110610eb157505050565b806060602080938501015201610ea5565b63ffffffff1663ffffffff81146103385760010190565b63ffffffff60019116019063ffffffff821161033857565b9063ffffffff8091169116019063ffffffff821161033857565b80518210156108fa5760209160051b010190565b604051610ca09190610f318382610bda565b6064815291601f1901366020840137565b5f1981146103385760010190565b9063ffffffff8091169116039063ffffffff821161033857565b60405190610f7782610b9f565b60606040835f81525f60208201520152565b90610f9382610e62565b610fa06040519182610bda565b8281528092610fb1601f1991610e62565b01905f5b828110610fc157505050565b602090610fcc610f6a565b82828501015201610fb5565b90604051610fe581610bbf565b809260ff81541690600682101561049057600161100791602093855201610cc4565b910152565b9060405161101981610b9f565b6002819380548352600181015460208401520190815461103881610e62565b926110466040519485610bda565b81845260208401905f5260205f205f915b838310611068575050505060400152565b6002602060019261107885610fd8565b815201920192019190611057565b6020908260405193849283378101600681520301902090565b604051906110ac82610bbf565b5f6020838281520152565b903590607e198136030182121561016d570190565b3560ff8116810361016d5790565b6002111561016d57565b60808136031261016d5760405190608082018281106001600160401b03821117610bba5760405280358252602081013560208301526040810135611127816110da565b60408301526060810135906001600160401b03821161016d5761114c91369101610c27565b606082015290565b6002111561049057565b35610196816110da565b903590601e198136030182121561016d57018035906001600160401b03821161016d5760200191813603831361016d57565b9081604091031261016d576020604051916111b483610bbf565b803583520135602082015290565b60208183031261016d578035906001600160401b03821161016d57019060608282031261016d57604051916111f683610b9f565b80358352602081013560208401526040810135906001600160401b03821161016d57019080601f8301121561016d5781359161123183610e62565b9261123f6040519485610bda565b80845260208085019160051b8301019183831161016d5760208101915b838310611270575050505050604082015290565b82356001600160401b03811161016d578201906040828703601f19011261016d576040519061129e82610bbf565b6020830135600681101561016d5782526040830135916001600160401b03831161016d576112d488602080969581960101610c27565b8382015281520192019161125c565b6112eb61109f565b5061133261132e6112ff610e1684806110b7565b60208401356040850135611315606087016110cc565b9161132861132388806110b7565b6110e4565b936115be565b1590565b610a2f5761134b604061134583806110b7565b0161115e565b61135481611154565b6113825761137d61137561136b83610196946110b7565b6060810190611168565b8101906111c2565b611991565b6001611393604061134584806110b7565b61139c81611154565b146113b057634a7f394f60e01b5f5260045ffd5b6113cb6113c361136b83610196946110b7565b81019061119a565b6116a0565b6113d861109f565b50805f5260026020528060405f20540361141857805f52600360205263ffffffff60405f2054166040519161140e604084610bda565b8252602082015290565b5060405161142581610bbf565b5f81525f602082015290565b80359060208101359061144c60408201359161136b836110da565b919060405193602085019586526040850152600282101561049057826114a593859260c09460608501526080808501528160a0850152848401375f838284010152601f801991011681010301601f198101835282610bda565b51902090565b60405160208101917f19457468657265756d205369676e6564204d6573736167653a0a3332000000008352603c820152603c81526114a5605c82610bda565b7f360894a13ba1a3210667c828492db98dca3e2076cc3735a920a3ca505d382bbc546001600160a01b03811615611538575f8091368280378136915af43d5f803e15611534573d5ff35b3d5ffd5b60405162461bcd60e51b8152602060048201526016602482015275125b5c1b195b595b9d185d1a5bdb881b9bdd081cd95d60521b6044820152606490fd5b6040513d5f823e3d90fd5b1561158857565b60405162461bcd60e51b815260206004820152600e60248201526d24b73b30b634b21039b4b3b732b960911b6044820152606490fd5b925f9260809260ff6115d16020976114ab565b9360405194855216868401526040830152606082015282805260015afa15611667575f516001600160a01b031690811561162e5760208161161a6116219461132e945114611581565b0151611b95565b61162a57600190565b5f90565b60405162461bcd60e51b8152602060048201526011602482015270496e76616c6964207369676e617475726560781b6044820152606490fd5b611576565b8054600160401b811015610bba57611689916001820181556108ff565b819291549060031b91821b915f19901b1916179055565b6116a861109f565b5060208101906116bb61132e8351611b95565b610a2f575190816116d4815f52600260205260405f2090565b54036117cb576116ec825f52600360205260405f2090565b905f8254905b8181106117a057505061170681518361166c565b51827fd2aac9324a6bc9024eeb4895d6cd6aef87b92cf5017e45126cd29ef3542a31728354926117398463ffffffff1690565b6040805192835263ffffffff91909116602083015290a26001546117659060a01c63ffffffff16610684565b111561178e57546101969063ffffffff1661177e610bfb565b92835263ffffffff166020830152565b5061179890611dfa565b611425610bfb565b6117ad610b1582866108ff565b8351146117bc576001016116f2565b63f6310c2560e01b5f5260045ffd5b63635e873760e01b5f5260045ffd5b5160068110156104905790565b9081602091031261016d575190565b80548210156108fa575f5260205f209060011b01905f90565b81811061181a575050565b5f815560010161180f565b9190601f811161183457505050565b610c0a925f5260205f20906020601f840160051c8301931061185e575b601f0160051c019061180f565b9091508190611851565b91909182516001600160401b038111610bba5761188f816118898454610c8c565b84611825565b6020601f82116001146118ce5781906118bf9394955f926118c3575b50508160011b915f199060031b1c19161790565b9055565b015190505f806118ab565b601f198216906118e1845f5260205f2090565b915f5b81811061191b57509583600195969710611903575b505050811b019055565b01515f1960f88460031b161c191690555f80806118f9565b9192602060018192868b0151815501940192016118e4565b8054600160401b811015610bba57611950916001820181556117f6565b61197e578151916006831015610490576020600191610c0a9460ff8019865416911617845501519101611868565b634e487b7160e01b5f525f60045260245ffd5b61199961109f565b50604081019081515115611b86575f5b82518051821015611a2c576119c96119c383600593610f0b565b516117da565b6119d281610486565b146119df576001016119a9565b6119f0602091611a02939451610f0b565b510151602080825183010191016117e7565b9060206001611a19845f52600260205260405f2090565b015491015103610a2f57611798906122c0565b505091906020830192611a55611a4b85515f52600460205260405f2090565b5463ffffffff1690565b611a6761068460055463ffffffff1690565b63ffffffff82161015611b77575f5b83518051821015611a9d5790611a97611a9182600194610f0b565b516123ba565b01611a76565b505091929093845190611ab8825f52600260205260405f2090565b955186558051600187015560025f9601955b85518051821015611af25790611aec611ae582600194610f0b565b5189611933565b01611aca565b5050919450916101969350611b09611b3191610ed9565b611b1c83515f52600460205260405f2090565b9063ffffffff1663ffffffff19825416179055565b805160405190815282907f893b6d8d4631b8381e5e0598ae30a4e7f0f1f0e719acece6b618476a0020721690602090a251611b6a610bfb565b91825260208201526116a0565b63090b564b60e01b5f5260045ffd5b634a7f394f60e01b5f5260045ffd5b6001545f54604051632997fc2960e11b815260048101919091526024810192909252602090829060449082906001600160a01b03165afa908115611667575f91611bdd575090565b90506020813d602011611c0d575b81611bf860209383610bda565b8101031261016d5751801515810361016d5790565b3d9150611beb565b81601f8201121561016d57805190611c2c82610c0c565b92611c3a6040519485610bda565b8284526020838301011161016d57815f9260208093018386015e8301015290565b91909160408184031261016d5780516001600160401b03811161016d5783611c84918301611c15565b9260208201516001600160401b03811161016d576101969201611c15565b6101969054610c8c565b60075490600160401b821015610bba57600182016007556007548210156108fa5760075f52610c0a917fa66cc928b5edb82af9bd49922954155ab7b0942694bea4ce44661d9a8736c68801611868565b9091611d1361019693604084526040840190610199565b916020818403910152610199565b9081602091031261016d57516101968161015f565b919082604091031261016d5760208251611d4f8161095b565b92015190565b3d15611d7f573d90611d6682610c0c565b91611d746040519384610bda565b82523d5f602084013e565b606090565b909160608284031261016d578151611d9b8161095b565b9260208301516001600160401b03811161016d57604091611d4f918501611c15565b80516020909101516001600160e01b0319811692919060048210611ddf575050565b6001600160e01b031960049290920360031b82901b16169150565b611e0c815f52600260205260405f2090565b91818354036117cb579091600201905f5b82548110156121c357611e39611e3382856117f6565b50610fd8565b8051611e4481610486565b611e4d81610486565b611efd576020611e6891015160208082518301019101611d84565b81516001600160a01b0390931693925f9081906020850184885af1611e8b611d55565b5015611b8657600193611ef3611ec17f56ded25a1cb0c2c7687c54265e8efa2110567bc139f34176aa96a35a9e769da194611dbd565b604080516001600160a01b0390941684526001600160e01b031990911660208401528201929092529081906060820190565b0390a15b01611e1d565b60018151611f0a81610486565b611f1381610486565b03611fab576020611f2f91015160208082518301019101611d36565b91906001600160a01b03165f80808086855af1611f4a611d55565b5015611f9c57604080516001600160a01b03909216825260208201939093526001927fefed6b8d78a916dbd402a323824ae4454c9214b8f3d05fa85b3bb7f30dc25c069190819081015b0390a1611ef7565b631e9acf1760e31b5f5260045ffd5b9081600260019351611fbc81610486565b611fc581610486565b0361204c5761200260207f1e7ef611d27d733df1fa2d1e8cf5afc95da2f98e8e603f127ee6545d00e8e1b492015160208082518301019101611d21565b835460a01c63ffffffff166001805463ffffffff60a01b191660a084901b63ffffffff60a01b161790556040805163ffffffff928316815292909116602083015281908101611f94565b6003815161205981610486565b61206281610486565b036120e05761209f60207f9dc7fc721ab84b30390be8cfea887af9da74db8d94c0f799d200ecf0a99edc3d92015160208082518301019101611d21565b60055463ffffffff166120c28263ffffffff1663ffffffff196005541617600555565b6040805163ffffffff928316815292909116602083015290a1611ef7565b600481516120ed81610486565b6120f681610486565b0361217c5761213360207f4780a6cf3a40932ea4b6261c23cfd06c4332976474debcc425a9f2ec2581c35592015160208082518301019101611c5b565b9061214861132e61214383610c6d565b611ca2565b61216e575b61215f8261215a83610c6d565b611868565b611f9460405192839283611cfc565b61217781611cac565b61214d565b6005815161218981610486565b61219281610486565b1461219e575b50611ef7565b6121b860206121bd920151602080825183010191016117e7565b6122c0565b5f612198565b5091610c0a9150807f7b1bcf1ccf901a11589afff5504d59fd0a53780eed2a952adade0348985139e05f80a26122c0565b6002905f81555f6001820155018054905f815581612210575050565b6001600160ff1b0382168203610338575f5260205f209060011b8101905b818110612239575050565b805f600292556001810161224d8154610c8c565b908161225c575b50500161222e565b601f8211600114612273575f9055505b5f80612254565b6122996122a9926001601f61228b855f5260205f2090565b920160051c8201910161180f565b5f81815260208120918190559055565b61226c565b63ffffffff168015610338575f190190565b805f52600260205260405f20818154146122d8575050565b60010154815f52600360205260405f208054905f81558161239c575b505061231061230b835f52600260205260405f2090565b6121f4565b63ffffffff61232a611a4b835f52600460205260405f2090565b16612357575b507f9e70f82b2c39ff8db1802828219639b786b0098beba2eb2a02ff366923ad9b2d5f80a2565b61236c612396915f52600460205260405f2090565b61238261237d825463ffffffff1690565b6122ae565b63ffffffff1663ffffffff19825416179055565b5f612330565b5f5260205f20908101905b818110156122f4575f81556001016123a7565b80516123c581610486565b6123ce81610486565b6124115760206123e991015160208082518301019101611d84565b506001600160a01b0390911615908115612405575b50611b8657565b6004915051105f6123fe565b6001815161241e81610486565b61242781610486565b0361246657602061244391015160208082518301019101611d36565b6001600160a01b039091161590811561245d5750611b8657565b9050155f6123fe565b6002815161247381610486565b61247c81610486565b036124b15761249d602063ffffffff92015160208082518301019101611d21565b16610c0a57634a7f394f60e01b5f5260045ffd5b600381516124be81610486565b6124c781610486565b146124cf5750565b6124eb602063ffffffff92015160208082518301019101611d21565b1615611b865756fea2646970667358221220cc722ce74f87fd12a81b408415c93f7106eb89c2eb291b8b63e338e89ffd3cd564736f6c634300081c0033","linkReferences":{}},"methodIdentifiers":{"activeProposalsLimit()":"16ba2943","approvals(bytes32,uint256)":"78925021","contextConfigId()":"b20732c8","contextId()":"5aef3986","contextStorage(bytes)":"b3a89829","contextStorageEntries(uint32,uint32)":"06812719","getActiveProposalsLimit()":"5fe3eb58","getConfirmationsCount(bytes32)":"b61bf0bb","getContextValue(bytes)":"46f5cf1e","getEthSignedMessageHash(bytes32)":"fa540801","getMessageHash((bytes32,bytes32,uint8,bytes))":"f8c12444","getNumApprovals()":"1cd9aa0e","getProposal(bytes32)":"430694cf","getProposals(uint32,uint32)":"39c50157","mutate(((bytes32,bytes32,uint8,bytes),bytes32,bytes32,uint8))":"5227206d","numApprovals()":"7403c5e5","numProposalsPk(bytes32)":"e271da6a","proposalApprovalsWithSigner(bytes32)":"a3378299","proposalApprovers(bytes32)":"31eadd0c","proposals(bytes32)":"32ed5b12","upgrade(address,address)":"99a88ec4"},"id":20}