{"abi":[{"type":"receive","stateMutability":"payable"},{"type":"function","name":"deposit","inputs":[{"name":"key","type":"string","internalType":"string"},{"name":"value","type":"string","internalType":"string"}],"outputs":[],"stateMutability":"payable"},{"type":"function","name":"getValue","inputs":[{"name":"key","type":"string","internalType":"string"}],"outputs":[{"name":"","type":"string","internalType":"string"}],"stateMutability":"view"},{"type":"function","name":"setValueNoDeposit","inputs":[{"name":"key","type":"string","internalType":"string"},{"name":"value","type":"string","internalType":"string"}],"outputs":[],"stateMutability":"nonpayable"},{"type":"function","name":"totalDeposits","inputs":[],"outputs":[{"name":"","type":"uint256","internalType":"uint256"}],"stateMutability":"view"}],"bytecode":{"object":"0x60808060405234601557610551908161001a8239f35b5f80fdfe60806040526004361015610029575b3615610018575f80fd5b610024346001546104fa565b600155005b5f3560e01c80637a9b486d146102ca5780637d882097146102ad578063960384a01461019c57639ebbd5830361000e57346101985760208061006a36610473565b9290604051928184925191829101835e81015f815203019020815167ffffffffffffffff81116101845761009e82546104c2565b601f811161013f575b50602092601f82116001146100e357928192935f926100d8575b50505f19600383901b1c191660019190911b179055005b015190505f806100c1565b601f19821693835f52805f20915f5b868110610127575083600195961061010f575b505050811b019055005b01515f1960f88460031b161c191690555f8080610105565b919260206001819286850151815501940192016100f2565b825f5260205f20601f830160051c8101916020841061017a575b601f0160051c01905b81811061016f57506100a7565b5f8155600101610162565b9091508190610159565b634e487b7160e01b5f52604160045260245ffd5b5f80fd5b346101985760203660031901126101985760043567ffffffffffffffff81116101985760206101d08192369060040161041d565b604051928184925191829101835e81015f8152030190206040515f8254926101f7846104c2565b9081845260208401946001811690815f146102905750600114610250575b84604085610225818703826103fb565b8151928391602083525180918160208501528484015e5f828201840152601f01601f19168101030190f35b5f90815260208120939250905b8082106102765750909150810160200161022582610215565b91926001816020925483858801015201910190929161025d565b60ff191686525050151560051b8201602001905061022582610215565b34610198575f366003190112610198576020600154604051908152f35b6020806102d636610473565b9290604051928184925191829101835e81015f815203019020815167ffffffffffffffff81116101845761030a82546104c2565b601f81116103b6575b50602092601f821160011461035757928192935f9261034c575b50508160011b915f199060031b1c1916179055610024346001546104fa565b01519050838061032d565b601f19821693835f52805f20915f5b86811061039e5750836001959610610386575b505050811b019055610018565b01515f1960f88460031b161c19169055838080610379565b91926020600181928685015181550194019201610366565b825f5260205f20601f830160051c810191602084106103f1575b601f0160051c01905b8181106103e65750610313565b5f81556001016103d9565b90915081906103d0565b90601f8019910116810190811067ffffffffffffffff82111761018457604052565b81601f820112156101985780359067ffffffffffffffff82116101845760405192610452601f8401601f1916602001856103fb565b8284526020838301011161019857815f926020809301838601378301015290565b9060406003198301126101985760043567ffffffffffffffff8111610198578261049f9160040161041d565b916024359067ffffffffffffffff8211610198576104bf9160040161041d565b90565b90600182811c921680156104f0575b60208310146104dc57565b634e487b7160e01b5f52602260045260245ffd5b91607f16916104d1565b9190820180921161050757565b634e487b7160e01b5f52601160045260245ffdfea2646970667358221220960ade11cb46a59a0d8d6fd799e9e3a2d06433bcd1ba8452991b6f65522bf6b864736f6c634300081c0033","linkReferences":{}},"methodIdentifiers":{"deposit(string,string)":"7a9b486d","getValue(string)":"960384a0","setValueNoDeposit(string,string)":"9ebbd583","totalDeposits()":"7d882097"},"id":19}